:0900AB007F507EC312003580F77E
:0B00A000EF1FAC0670011E4C70F62232
:10005B00AB07AA06EB1BAE0270011A4E60097F6458
:08006B007E001200A080ED22CE
:10007300EF14FFF87401088002C333D8FCF452A0D4
:01008300225A
:10008400EF14FFF87401088002C333D8FC42A022A5
:040003008E088F09CB
:10000700E4F50AE50A04FF120073AF09AE0812000F
:10001700A0050AE50AC3940840E9E4F50AE50A04DD
:0D002700FF120084050AE50AC3940840F0AA
:0100340022A9
:040035008E0B8F0C93
:10003900E4F50DE50D04FF120073AF0CAE0B1200D1
:10004900A0E50D04FF120084050DE50DC3940840D9
:01005900E2C4
:01005A002283
:0300000002009467
:0C009400787FE4F6D8FD75810D0200AB0A
:00000001FF
